{"contracts/new_voting.sol":{"New_Voting":{"abi":[{"inputs":[],"stateMutability":"nonpayable","type":"constructor"},{"inputs":[{"internalType":"uint256","name":"i","type":"uint256"}],"name":"AAP","outputs":[],"stateMutability":"nonpayable","type":"function"},{"inputs":[{"internalType":"uint256","name":"i","type":"uint256"}],"name":"BJP","outputs":[],"stateMutability":"nonpayable","type":"function"},{"inputs":[{"internalType":"uint256","name":"i","type":"uint256"}],"name":"Congress","outputs":[],"stateMutability":"nonpayable","type":"function"},{"inputs":[],"name":"Declaration","outputs":[{"internalType":"uint256","name":"","type":"uint256"}],"stateMutability":"view","type":"function"},{"inputs":[{"internalType":"uint256","name":"i","type":"uint256"}],"name":"NOTA","outputs":[],"stateMutability":"nonpayable","type":"function"},{"inputs":[],"name":"VotesOfAAP","outputs":[{"internalType":"uint256","name":"","type":"uint256"}],"stateMutability":"view","type":"function"},{"inputs":[],"name":"VotesOfBJP","outputs":[{"internalType":"uint256","name":"","type":"uint256"}],"stateMutability":"view","type":"function"},{"inputs":[],"name":"VotesOfCongress","outputs":[{"internalType":"uint256","name":"","type":"uint256"}],"stateMutability":"view","type":"function"},{"inputs":[],"name":"VotesOfNOTA","outputs":[{"internalType":"uint256","name":"","type":"uint256"}],"stateMutability":"view","type":"function"},{"inputs":[],"name":"Winner","outputs":[{"internalType":"uint256","name":"","type":"uint256"}],"stateMutability":"view","type":"function"}],"evm":{"bytecode":{"linkReferences":{},"object":"6080604052600080556000600155600060025560006003554260045560006006553480156200002d57600080fd5b5060005b6103e88110156200012657336007826103e881106200005557620000546200012d565b5b6002020160000160016101000a81548173ffffffffffffffffffffffffffffffffffffffff021916908373ffffffffffffffffffffffffffffffffffffffff16021790555060006007826103e88110620000b457620000b36200012d565b5b6002020160000160006101000a81548160ff021916908315150217905550604051806020016040528060008152506007826103e88110620000fa57620000f96200012d565b5b6002020160010190816200010f9190620003d6565b5080806200011d90620004ec565b91505062000031565b5062000539565b7f4e487b7100000000000000000000000000000000000000000000000000000000600052603260045260246000fd5b600081519050919050565b7f4e487b7100000000000000000000000000000000000000000000000000000000600052604160045260246000fd5b7f4e487b7100000000000000000000000000000000000000000000000000000000600052602260045260246000fd5b60006002820490506001821680620001de57607f821691505b602082108103620001f457620001f362000196565b5b50919050565b60008190508160005260206000209050919050565b60006020601f8301049050919050565b600082821b905092915050565b6000600883026200025e7fffffffffffffffffffffffffffffffffffffffffffffffffffffffffffffffff826200021f565b6200026a86836200021f565b95508019841693508086168417925050509392505050565b6000819050919050565b6000819050919050565b6000620002b7620002b1620002ab8462000282565b6200028c565b62000282565b9050919050565b6000819050919050565b620002d38362000296565b620002eb620002e282620002be565b8484546200022c565b825550505050565b600090565b62000302620002f3565b6200030f818484620002c8565b505050565b5b8181101562000337576200032b600082620002f8565b60018101905062000315565b5050565b601f82111562000386576200035081620001fa565b6200035b846200020f565b810160208510156200036b578190505b620003836200037a856200020f565b83018262000314565b50505b505050565b600082821c905092915050565b6000620003ab600019846008026200038b565b1980831691505092915050565b6000620003c6838362000398565b9150826002028217905092915050565b620003e1826200015c565b67ffffffffffffffff811115620003fd57620003fc62000167565b5b620004098254620001c5565b620004168282856200033b565b600060209050601f8311600181146200044e576000841562000439578287015190505b620004458582620003b8565b865550620004b5565b601f1984166200045e86620001fa565b60005b82811015620004885784890151825560018201915060208501945060208101905062000461565b86831015620004a85784890151620004a4601f89168262000398565b8355505b6001600288020188555050505b505050505050565b7f4e487b7100000000000000000000000000000000000000000000000000000000600052601160045260246000fd5b6000620004f98262000282565b91507fffffffffffffffffffffffffffffffffffffffffffffffffffffffffffffffff82036200052e576200052d620004bd565b5b600182019050919050565b610b9d80620005496000396000f3fe608060405234801561001057600080fd5b506004361061009e5760003560e01c8063b8a134b811610066578063b8a134b814610135578063c0ad73e614610153578063d7e4f7541461016f578063eb6e8f5e1461018d578063f77985bb146101ab5761009e565b80634415800e146100a35780634944d88b146100bf5780635c4314b9146100db578063a076e223146100f9578063b2b98ed214610117575b600080fd5b6100bd60048036038101906100b89190610752565b6101c7565b005b6100d960048036038101906100d49190610752565b6102ca565b005b6100e36103cd565b6040516100f0919061078e565b60405180910390f35b6101016103d7565b60405161010e919061078e565b60405180910390f35b61011f6103e1565b60405161012c919061078e565b60405180910390f35b61013d6104d3565b60405161014a919061078e565b60405180910390f35b61016d60048036038101906101689190610752565b6104dd565b005b6101776105df565b604051610184919061078e565b60405180910390f35b6101956105e8565b6040516101a2919061078e565b60405180910390f35b6101c560048036038101906101c09190610752565b6105f2565b005b80600015156007826103e881106101e1576101e06107a9565b5b6002020160000160009054906101000a900460ff1615151461020257600080fd5b6002600081548092919061021590610807565b91905055506006600081548092919061022d90610807565b919050555060016007836103e88110610249576102486107a9565b5b6002020160000160006101000a81548160ff0219169083151502179055506040518060400160405280600381526020017f41415000000000000000000000000000000000000000000000000000000000008152506007836103e881106102b2576102b16107a9565b5b6002020160010190816102c59190610a95565b505050565b80600015156007826103e881106102e4576102e36107a9565b5b6002020160000160009054906101000a900460ff1615151461030557600080fd5b6001600081548092919061031890610807565b91905055506006600081548092919061033090610807565b919050555060016007836103e8811061034c5761034b6107a9565b5b6002020160000160006101000a81548160ff0219169083151502179055506040518060400160405280600881526020017f436f6e67726573730000000000000000000000000000000000000000000000008152506007836103e881106103b5576103b46107a9565b5b6002020160010190816103c89190610a95565b505050565b6000600254905090565b6000600654905090565b60006103eb6106f5565b60005481600060048110610402576104016107a9565b5b60200201818152505060015481600160048110610422576104216107a9565b5b60200201818152505060025481600260048110610442576104416107a9565b5b60200201818152505060035481600360048110610462576104616107a9565b5b60200201818152505060008054905060005b60048110156104ca5781838260048110610491576104906107a9565b5b602002015111156104b7578281600481106104af576104ae6107a9565b5b602002015191505b80806104c290610807565b915050610474565b50809250505090565b6000600354905090565b80600015156007826103e881106104f7576104f66107a9565b5b6002020160000160009054906101000a900460ff1615151461051857600080fd5b60008081548092919061052a90610807565b91905055506006600081548092919061054290610807565b919050555060016007836103e8811061055e5761055d6107a9565b5b6002020160000160006101000a81548160ff0219169083151502179055506040518060400160405280600381526020017f424a5000000000000000000000000000000000000000000000000000000000008152506007836103e881106105c7576105c66107a9565b5b6002020160010190816105da9190610a95565b505050565b60008054905090565b6000600154905090565b80600015156007826103e8811061060c5761060b6107a9565b5b6002020160000160009054906101000a900460ff1615151461062d57600080fd5b6003600081548092919061064090610807565b91905055506006600081548092919061065890610807565b919050555060016007836103e88110610674576106736107a9565b5b6002020160000160006101000a81548160ff0219169083151502179055506040518060400160405280601181526020017f4e6f6e65206f66207468652061626f76650000000000000000000000000000008152506007836103e881106106dd576106dc6107a9565b5b6002020160010190816106f09190610a95565b505050565b6040518060800160405280600490602082028036833780820191505090505090565b600080fd5b6000819050919050565b61072f8161071c565b811461073a57600080fd5b50565b60008135905061074c81610726565b92915050565b60006020828403121561076857610767610717565b5b60006107768482850161073d565b91505092915050565b6107888161071c565b82525050565b60006020820190506107a3600083018461077f565b92915050565b7f4e487b7100000000000000000000000000000000000000000000000000000000600052603260045260246000fd5b7f4e487b7100000000000000000000000000000000000000000000000000000000600052601160045260246000fd5b60006108128261071c565b91507fffffffffffffffffffffffffffffffffffffffffffffffffffffffffffffffff8203610844576108436107d8565b5b600182019050919050565b600081519050919050565b7f4e487b7100000000000000000000000000000000000000000000000000000000600052604160045260246000fd5b7f4e487b7100000000000000000000000000000000000000000000000000000000600052602260045260246000fd5b600060028204905060018216806108d057607f821691505b6020821081036108e3576108e2610889565b5b50919050565b60008190508160005260206000209050919050565b60006020601f8301049050919050565b600082821b905092915050565b60006008830261094b7fffffffffffffffffffffffffffffffffffffffffffffffffffffffffffffffff8261090e565b610955868361090e565b95508019841693508086168417925050509392505050565b6000819050919050565b600061099261098d6109888461071c565b61096d565b61071c565b9050919050565b6000819050919050565b6109ac83610977565b6109c06109b882610999565b84845461091b565b825550505050565b600090565b6109d56109c8565b6109e08184846109a3565b505050565b5b81811015610a04576109f96000826109cd565b6001810190506109e6565b5050565b601f821115610a4957610a1a816108e9565b610a23846108fe565b81016020851015610a32578190505b610a46610a3e856108fe565b8301826109e5565b50505b505050565b600082821c905092915050565b6000610a6c60001984600802610a4e565b1980831691505092915050565b6000610a858383610a5b565b9150826002028217905092915050565b610a9e8261084f565b67ffffffffffffffff811115610ab757610ab661085a565b5b610ac182546108b8565b610acc828285610a08565b600060209050601f831160018114610aff5760008415610aed578287015190505b610af78582610a79565b865550610b5f565b601f198416610b0d866108e9565b60005b82811015610b3557848901518255600182019150602085019450602081019050610b10565b86831015610b525784890151610b4e601f891682610a5b565b8355505b6001600288020188555050505b50505050505056fea264697066735822122081d3e410e0bf6231d1204b49734236c725785d3e78a401139869d1993701306f64736f6c63430008120033","opcodes":"PUSH1 0x80 PUSH1 0x40 MSTORE PUSH1 0x0 DUP1 SSTORE PUSH1 0x0 PUSH1 0x1 SSTORE PUSH1 0x0 PUSH1 0x2 SSTORE PUSH1 0x0 PUSH1 0x3 SSTORE TIMESTAMP PUSH1 0x4 SSTORE PUSH1 0x0 PUSH1 0x6 SSTORE CALLVALUE DUP1 ISZERO PUSH3 0x2D JUMPI PUSH1 0x0 DUP1 REVERT JUMPDEST POP PUSH1 0x0 JUMPDEST PUSH2 0x3E8 DUP2 LT ISZERO PUSH3 0x126 JUMPI CALLER PUSH1 0x7 DUP3 PUSH2 0x3E8 DUP2 LT PUSH3 0x55 JUMPI PUSH3 0x54 PUSH3 0x12D JUMP JUMPDEST JUMPDEST PUSH1 0x2 MUL ADD PUSH1 0x0 ADD PUSH1 0x1 PUSH2 0x100 EXP DUP2 SLOAD DUP2 PUSH20 0xFFFFFFFFFFFFFFFFFFFFFFFFFFFFFFFFFFFFFFFF MUL NOT AND SWAP1 DUP4 PUSH20 0xFFFFFFFFFFFFFFFFFFFFFFFFFFFFFFFFFFFFFFFF AND MUL OR SWAP1 SSTORE POP PUSH1 0x0 PUSH1 0x7 DUP3 PUSH2 0x3E8 DUP2 LT PUSH3 0xB4 JUMPI PUSH3 0xB3 PUSH3 0x12D JUMP JUMPDEST JUMPDEST PUSH1 0x2 MUL ADD PUSH1 0x0 ADD PUSH1 0x0 PUSH2 0x100 EXP DUP2 SLOAD DUP2 PUSH1 0xFF MUL NOT AND SWAP1 DUP4 ISZERO ISZERO MUL OR SWAP1 SSTORE POP PUSH1 0x40 MLOAD DUP1 PUSH1 0x20 ADD PUSH1 0x40 MSTORE DUP1 PUSH1 0x0 DUP2 MSTORE POP PUSH1 0x7 DUP3 PUSH2 0x3E8 DUP2 LT PUSH3 0xFA JUMPI PUSH3 0xF9 PUSH3 0x12D JUMP JUMPDEST JUMPDEST PUSH1 0x2 MUL ADD PUSH1 0x1 ADD SWAP1 DUP2 PUSH3 0x10F SWAP2 SWAP1 PUSH3 0x3D6 JUMP JUMPDEST POP DUP1 DUP1 PUSH3 0x11D SWAP1 PUSH3 0x4EC JUMP JUMPDEST SWAP2 POP POP PUSH3 0x31 JUMP JUMPDEST POP PUSH3 0x539 JUMP JUMPDEST PUSH32 0x4E487B7100000000000000000000000000000000000000000000000000000000 PUSH1 0x0 MSTORE PUSH1 0x32 PUSH1 0x4 MSTORE PUSH1 0x24 PUSH1 0x0 REVERT JUMPDEST PUSH1 0x0 DUP2 MLOAD SWAP1 POP SWAP2 SWAP1 POP JUMP JUMPDEST PUSH32 0x4E487B7100000000000000000000000000000000000000000000000000000000 PUSH1 0x0 MSTORE PUSH1 0x41 PUSH1 0x4 MSTORE PUSH1 0x24 PUSH1 0x0 REVERT JUMPDEST PUSH32 0x4E487B7100000000000000000000000000000000000000000000000000000000 PUSH1 0x0 MSTORE PUSH1 0x22 PUSH1 0x4 MSTORE PUSH1 0x24 PUSH1 0x0 REVERT JUMPDEST PUSH1 0x0 PUSH1 0x2 DUP3 DIV SWAP1 POP PUSH1 0x1 DUP3 AND DUP1 PUSH3 0x1DE JUMPI PUSH1 0x7F DUP3 AND SWAP2 POP JUMPDEST PUSH1 0x20 DUP3 LT DUP2 SUB PUSH3 0x1F4 JUMPI PUSH3 0x1F3 PUSH3 0x196 JUMP JUMPDEST JUMPDEST POP SWAP2 SWAP1 POP JUMP JUMPDEST PUSH1 0x0 DUP2 SWAP1 POP DUP2 PUSH1 0x0 MSTORE PUSH1 0x20 PUSH1 0x0 KECCAK256 SWAP1 POP SWAP2 SWAP1 POP JUMP JUMPDEST PUSH1 0x0 PUSH1 0x20 PUSH1 0x1F DUP4 ADD DIV SWAP1 POP SWAP2 SWAP1 POP JUMP JUMPDEST PUSH1 0x0 DUP3 DUP3 SHL SWAP1 POP SWAP3 SWAP2 POP POP JUMP JUMPDEST PUSH1 0x0 PUSH1 0x8 DUP4 MUL PUSH3 0x25E PUSH32 0xFFFFFFFFFFFFFFFFFFFFFFFFFFFFFFFFFFFFFFFFFFFFFFFFFFFFFFFFFFFFFFFF DUP3 PUSH3 0x21F JUMP JUMPDEST PUSH3 0x26A DUP7 DUP4 PUSH3 0x21F JUMP JUMPDEST SWAP6 POP DUP1 NOT DUP5 AND SWAP4 POP DUP1 DUP7 AND DUP5 OR SWAP3 POP POP POP SWAP4 SWAP3 POP POP POP JUMP JUMPDEST PUSH1 0x0 DUP2 SWAP1 POP SWAP2 SWAP1 POP JUMP JUMPDEST PUSH1 0x0 DUP2 SWAP1 POP SWAP2 SWAP1 POP JUMP JUMPDEST PUSH1 0x0 PUSH3 0x2B7 PUSH3 0x2B1 PUSH3 0x2AB DUP5 PUSH3 0x282 JUMP JUMPDEST PUSH3 0x28C JUMP JUMPDEST PUSH3 0x282 JUMP JUMPDEST SWAP1 POP SWAP2 SWAP1 POP JUMP JUMPDEST PUSH1 0x0 DUP2 SWAP1 POP SWAP2 SWAP1 POP JUMP JUMPDEST PUSH3 0x2D3 DUP4 PUSH3 0x296 JUMP JUMPDEST PUSH3 0x2EB PUSH3 0x2E2 DUP3 PUSH3 0x2BE JUMP JUMPDEST DUP5 DUP5 SLOAD PUSH3 0x22C JUMP JUMPDEST DUP3 SSTORE POP POP POP POP JUMP JUMPDEST PUSH1 0x0 SWAP1 JUMP JUMPDEST PUSH3 0x302 PUSH3 0x2F3 JUMP JUMPDEST PUSH3 0x30F DUP2 DUP5 DUP5 PUSH3 0x2C8 JUMP JUMPDEST POP POP POP JUMP JUMPDEST JUMPDEST DUP2 DUP2 LT ISZERO PUSH3 0x337 JUMPI PUSH3 0x32B PUSH1 0x0 DUP3 PUSH3 0x2F8 JUMP JUMPDEST PUSH1 0x1 DUP2 ADD SWAP1 POP PUSH3 0x315 JUMP JUMPDEST POP POP JUMP JUMPDEST PUSH1 0x1F DUP3 GT ISZERO PUSH3 0x386 JUMPI PUSH3 0x350 DUP2 PUSH3 0x1FA JUMP JUMPDEST PUSH3 0x35B DUP5 PUSH3 0x20F JUMP JUMPDEST DUP2 ADD PUSH1 0x20 DUP6 LT ISZERO PUSH3 0x36B JUMPI DUP2 SWAP1 POP JUMPDEST PUSH3 0x383 PUSH3 0x37A DUP6 PUSH3 0x20F JUMP JUMPDEST DUP4 ADD DUP3 PUSH3 0x314 JUMP JUMPDEST POP POP JUMPDEST POP POP POP JUMP JUMPDEST PUSH1 0x0 DUP3 DUP3 SHR SWAP1 POP SWAP3 SWAP2 POP POP JUMP JUMPDEST PUSH1 0x0 PUSH3 0x3AB PUSH1 0x0 NOT DUP5 PUSH1 0x8 MUL PUSH3 0x38B JUMP JUMPDEST NOT DUP1 DUP4 AND SWAP2 POP POP SWAP3 SWAP2 POP POP JUMP JUMPDEST PUSH1 0x0 PUSH3 0x3C6 DUP4 DUP4 PUSH3 0x398 JUMP JUMPDEST SWAP2 POP DUP3 PUSH1 0x2 MUL DUP3 OR SWAP1 POP SWAP3 SWAP2 POP POP JUMP JUMPDEST PUSH3 0x3E1 DUP3 PUSH3 0x15C JUMP JUMPDEST PUSH8 0xFFFFFFFFFFFFFFFF DUP2 GT ISZERO PUSH3 0x3FD JUMPI PUSH3 0x3FC PUSH3 0x167 JUMP JUMPDEST JUMPDEST PUSH3 0x409 DUP3 SLOAD PUSH3 0x1C5 JUMP JUMPDEST PUSH3 0x416 DUP3 DUP3 DUP6 PUSH3 0x33B JUMP JUMPDEST PUSH1 0x0 PUSH1 0x20 SWAP1 POP PUSH1 0x1F DUP4 GT PUSH1 0x1 DUP2 EQ PUSH3 0x44E JUMPI PUSH1 0x0 DUP5 ISZERO PUSH3 0x439 JUMPI DUP3 DUP8 ADD MLOAD SWAP1 POP JUMPDEST PUSH3 0x445 DUP6 DUP3 PUSH3 0x3B8 JUMP JUMPDEST DUP7 SSTORE POP PUSH3 0x4B5 JUMP JUMPDEST PUSH1 0x1F NOT DUP5 AND PUSH3 0x45E DUP7 PUSH3 0x1FA JUMP JUMPDEST PUSH1 0x0 JUMPDEST DUP3 DUP2 LT ISZERO PUSH3 0x488 JUMPI DUP5 DUP10 ADD MLOAD DUP3 SSTORE PUSH1 0x1 DUP3 ADD SWAP2 POP PUSH1 0x20 DUP6 ADD SWAP5 POP PUSH1 0x20 DUP2 ADD SWAP1 POP PUSH3 0x461 JUMP JUMPDEST DUP7 DUP4 LT ISZERO PUSH3 0x4A8 JUMPI DUP5 DUP10 ADD MLOAD PUSH3 0x4A4 PUSH1 0x1F DUP10 AND DUP3 PUSH3 0x398 JUMP JUMPDEST DUP4 SSTORE POP JUMPDEST PUSH1 0x1 PUSH1 0x2 DUP9 MUL ADD DUP9 SSTORE POP POP POP JUMPDEST POP POP POP POP POP POP JUMP JUMPDEST PUSH32 0x4E487B7100000000000000000000000000000000000000000000000000000000 PUSH1 0x0 MSTORE PUSH1 0x11 PUSH1 0x4 MSTORE PUSH1 0x24 PUSH1 0x0 REVERT JUMPDEST PUSH1 0x0 PUSH3 0x4F9 DUP3 PUSH3 0x282 JUMP JUMPDEST SWAP2 POP PUSH32 0xFFFFFFFFFFFFFFFFFFFFFFFFFFFFFFFFFFFFFFFFFFFFFFFFFFFFFFFFFFFFFFFF DUP3 SUB PUSH3 0x52E JUMPI PUSH3 0x52D PUSH3 0x4BD JUMP JUMPDEST JUMPDEST PUSH1 0x1 DUP3 ADD SWAP1 POP SWAP2 SWAP1 POP JUMP JUMPDEST PUSH2 0xB9D DUP1 PUSH3 0x549 PUSH1 0x0 CODECOPY PUSH1 0x0 RETURN INVALID PUSH1 0x80 PUSH1 0x40 MSTORE CALLVALUE DUP1 ISZERO PUSH2 0x10 JUMPI PUSH1 0x0 DUP1 REVERT JUMPDEST POP PUSH1 0x4 CALLDATASIZE LT PUSH2 0x9E JUMPI PUSH1 0x0 CALLDATALOAD PUSH1 0xE0 SHR DUP1 PUSH4 0xB8A134B8 GT PUSH2 0x66 JUMPI DUP1 PUSH4 0xB8A134B8 EQ PUSH2 0x135 JUMPI DUP1 PUSH4 0xC0AD73E6 EQ PUSH2 0x153 JUMPI DUP1 PUSH4 0xD7E4F754 EQ PUSH2 0x16F JUMPI DUP1 PUSH4 0xEB6E8F5E EQ PUSH2 0x18D JUMPI DUP1 PUSH4 0xF77985BB EQ PUSH2 0x1AB JUMPI PUSH2 0x9E JUMP JUMPDEST DUP1 PUSH4 0x4415800E EQ PUSH2 0xA3 JUMPI DUP1 PUSH4 0x4944D88B EQ PUSH2 0xBF JUMPI DUP1 PUSH4 0x5C4314B9 EQ PUSH2 0xDB JUMPI DUP1 PUSH4 0xA076E223 EQ PUSH2 0xF9 JUMPI DUP1 PUSH4 0xB2B98ED2 EQ PUSH2 0x117 JUMPI JUMPDEST PUSH1 0x0 DUP1 REVERT JUMPDEST PUSH2 0xBD PUSH1 0x4 DUP1 CALLDATASIZE SUB DUP2 ADD SWAP1 PUSH2 0xB8 SWAP2 SWAP1 PUSH2 0x752 JUMP JUMPDEST PUSH2 0x1C7 JUMP JUMPDEST STOP JUMPDEST PUSH2 0xD9 PUSH1 0x4 DUP1 CALLDATASIZE SUB DUP2 ADD SWAP1 PUSH2 0xD4 SWAP2 SWAP1 PUSH2 0x752 JUMP JUMPDEST PUSH2 0x2CA JUMP JUMPDEST STOP JUMPDEST PUSH2 0xE3 PUSH2 0x3CD JUMP JUMPDEST PUSH1 0x40 MLOAD PUSH2 0xF0 SWAP2 SWAP1 PUSH2 0x78E JUMP JUMPDEST PUSH1 0x40 MLOAD DUP1 SWAP2 SUB SWAP1 RETURN JUMPDEST PUSH2 0x101 PUSH2 0x3D7 JUMP JUMPDEST PUSH1 0x40 MLOAD PUSH2 0x10E SWAP2 SWAP1 PUSH2 0x78E JUMP JUMPDEST PUSH1 0x40 MLOAD DUP1 SWAP2 SUB SWAP1 RETURN JUMPDEST PUSH2 0x11F PUSH2 0x3E1 JUMP JUMPDEST PUSH1 0x40 MLOAD PUSH2 0x12C SWAP2 SWAP1 PUSH2 0x78E JUMP JUMPDEST PUSH1 0x40 MLOAD DUP1 SWAP2 SUB SWAP1 RETURN JUMPDEST PUSH2 0x13D PUSH2 0x4D3 JUMP JUMPDEST PUSH1 0x40 MLOAD PUSH2 0x14A SWAP2 SWAP1 PUSH2 0x78E JUMP JUMPDEST PUSH1 0x40 MLOAD DUP1 SWAP2 SUB SWAP1 RETURN JUMPDEST PUSH2 0x16D PUSH1 0x4 DUP1 CALLDATASIZE SUB DUP2 ADD SWAP1 PUSH2 0x168 SWAP2 SWAP1 PUSH2 0x752 JUMP JUMPDEST PUSH2 0x4DD JUMP JUMPDEST STOP JUMPDEST PUSH2 0x177 PUSH2 0x5DF JUMP JUMPDEST PUSH1 0x40 MLOAD PUSH2 0x184 SWAP2 SWAP1 PUSH2 0x78E JUMP JUMPDEST PUSH1 0x40 MLOAD DUP1 SWAP2 SUB SWAP1 RETURN JUMPDEST PUSH2 0x195 PUSH2 0x5E8 JUMP JUMPDEST PUSH1 0x40 MLOAD PUSH2 0x1A2 SWAP2 SWAP1 PUSH2 0x78E JUMP JUMPDEST PUSH1 0x40 MLOAD DUP1 SWAP2 SUB SWAP1 RETURN JUMPDEST PUSH2 0x1C5 PUSH1 0x4 DUP1 CALLDATASIZE SUB DUP2 ADD SWAP1 PUSH2 0x1C0 SWAP2 SWAP1 PUSH2 0x752 JUMP JUMPDEST PUSH2 0x5F2 JUMP JUMPDEST STOP JUMPDEST DUP1 PUSH1 0x0 ISZERO ISZERO PUSH1 0x7 DUP3 PUSH2 0x3E8 DUP2 LT PUSH2 0x1E1 JUMPI PUSH2 0x1E0 PUSH2 0x7A9 JUMP JUMPDEST JUMPDEST PUSH1 0x2 MUL ADD PUSH1 0x0 ADD PUSH1 0x0 SWAP1 SLOAD SWAP1 PUSH2 0x100 EXP SWAP1 DIV PUSH1 0xFF AND ISZERO ISZERO EQ PUSH2 0x202 JUMPI PUSH1 0x0 DUP1 REVERT JUMPDEST PUSH1 0x2 PUSH1 0x0 DUP2 SLOAD DUP1 SWAP3 SWAP2 SWAP1 PUSH2 0x215 SWAP1 PUSH2 0x807 JUMP JUMPDEST SWAP2 SWAP1 POP SSTORE POP PUSH1 0x6 PUSH1 0x0 DUP2 SLOAD DUP1 SWAP3 SWAP2 SWAP1 PUSH2 0x22D SWAP1 PUSH2 0x807 JUMP JUMPDEST SWAP2 SWAP1 POP SSTORE POP PUSH1 0x1 PUSH1 0x7 DUP4 PUSH2 0x3E8 DUP2 LT PUSH2 0x249 JUMPI PUSH2 0x248 PUSH2 0x7A9 JUMP JUMPDEST JUMPDEST PUSH1 0x2 MUL ADD PUSH1 0x0 ADD PUSH1 0x0 PUSH2 0x100 EXP DUP2 SLOAD DUP2 PUSH1 0xFF MUL NOT AND SWAP1 DUP4 ISZERO ISZERO MUL OR SWAP1 SSTORE POP PUSH1 0x40 MLOAD DUP1 PUSH1 0x40 ADD PUSH1 0x40 MSTORE DUP1 PUSH1 0x3 DUP2 MSTORE PUSH1 0x20 ADD PUSH32 0x4141500000000000000000000000000000000000000000000000000000000000 DUP2 MSTORE POP PUSH1 0x7 DUP4 PUSH2 0x3E8 DUP2 LT PUSH2 0x2B2 JUMPI PUSH2 0x2B1 PUSH2 0x7A9 JUMP JUMPDEST JUMPDEST PUSH1 0x2 MUL ADD PUSH1 0x1 ADD SWAP1 DUP2 PUSH2 0x2C5 SWAP2 SWAP1 PUSH2 0xA95 JUMP JUMPDEST POP POP POP JUMP JUMPDEST DUP1 PUSH1 0x0 ISZERO ISZERO PUSH1 0x7 DUP3 PUSH2 0x3E8 DUP2 LT PUSH2 0x2E4 JUMPI PUSH2 0x2E3 PUSH2 0x7A9 JUMP JUMPDEST JUMPDEST PUSH1 0x2 MUL ADD PUSH1 0x0 ADD PUSH1 0x0 SWAP1 SLOAD SWAP1 PUSH2 0x100 EXP SWAP1 DIV PUSH1 0xFF AND ISZERO ISZERO EQ PUSH2 0x305 JUMPI PUSH1 0x0 DUP1 REVERT JUMPDEST PUSH1 0x1 PUSH1 0x0 DUP2 SLOAD DUP1 SWAP3 SWAP2 SWAP1 PUSH2 0x318 SWAP1 PUSH2 0x807 JUMP JUMPDEST SWAP2 SWAP1 POP SSTORE POP PUSH1 0x6 PUSH1 0x0 DUP2 SLOAD DUP1 SWAP3 SWAP2 SWAP1 PUSH2 0x330 SWAP1 PUSH2 0x807 JUMP JUMPDEST SWAP2 SWAP1 POP SSTORE POP PUSH1 0x1 PUSH1 0x7 DUP4 PUSH2 0x3E8 DUP2 LT PUSH2 0x34C JUMPI PUSH2 0x34B PUSH2 0x7A9 JUMP JUMPDEST JUMPDEST PUSH1 0x2 MUL ADD PUSH1 0x0 ADD PUSH1 0x0 PUSH2 0x100 EXP DUP2 SLOAD DUP2 PUSH1 0xFF MUL NOT AND SWAP1 DUP4 ISZERO ISZERO MUL OR SWAP1 SSTORE POP PUSH1 0x40 MLOAD DUP1 PUSH1 0x40 ADD PUSH1 0x40 MSTORE DUP1 PUSH1 0x8 DUP2 MSTORE PUSH1 0x20 ADD PUSH32 0x436F6E6772657373000000000000000000000000000000000000000000000000 DUP2 MSTORE POP PUSH1 0x7 DUP4 PUSH2 0x3E8 DUP2 LT PUSH2 0x3B5 JUMPI PUSH2 0x3B4 PUSH2 0x7A9 JUMP JUMPDEST JUMPDEST PUSH1 0x2 MUL ADD PUSH1 0x1 ADD SWAP1 DUP2 PUSH2 0x3C8 SWAP2 SWAP1 PUSH2 0xA95 JUMP JUMPDEST POP POP POP JUMP JUMPDEST PUSH1 0x0 PUSH1 0x2 SLOAD SWAP1 POP SWAP1 JUMP JUMPDEST PUSH1 0x0 PUSH1 0x6 SLOAD SWAP1 POP SWAP1 JUMP JUMPDEST PUSH1 0x0 PUSH2 0x3EB PUSH2 0x6F5 JUMP JUMPDEST PUSH1 0x0 SLOAD DUP2 PUSH1 0x0 PUSH1 0x4 DUP2 LT PUSH2 0x402 JUMPI PUSH2 0x401 PUSH2 0x7A9 JUMP JUMPDEST JUMPDEST PUSH1 0x20 MUL ADD DUP2 DUP2 MSTORE POP POP PUSH1 0x1 SLOAD DUP2 PUSH1 0x1 PUSH1 0x4 DUP2 LT PUSH2 0x422 JUMPI PUSH2 0x421 PUSH2 0x7A9 JUMP JUMPDEST JUMPDEST PUSH1 0x20 MUL ADD DUP2 DUP2 MSTORE POP POP PUSH1 0x2 SLOAD DUP2 PUSH1 0x2 PUSH1 0x4 DUP2 LT PUSH2 0x442 JUMPI PUSH2 0x441 PUSH2 0x7A9 JUMP JUMPDEST JUMPDEST PUSH1 0x20 MUL ADD DUP2 DUP2 MSTORE POP POP PUSH1 0x3 SLOAD DUP2 PUSH1 0x3 PUSH1 0x4 DUP2 LT PUSH2 0x462 JUMPI PUSH2 0x461 PUSH2 0x7A9 JUMP JUMPDEST JUMPDEST PUSH1 0x20 MUL ADD DUP2 DUP2 MSTORE POP POP PUSH1 0x0 DUP1 SLOAD SWAP1 POP PUSH1 0x0 JUMPDEST PUSH1 0x4 DUP2 LT ISZERO PUSH2 0x4CA JUMPI DUP2 DUP4 DUP3 PUSH1 0x4 DUP2 LT PUSH2 0x491 JUMPI PUSH2 0x490 PUSH2 0x7A9 JUMP JUMPDEST JUMPDEST PUSH1 0x20 MUL ADD MLOAD GT ISZERO PUSH2 0x4B7 JUMPI DUP3 DUP2 PUSH1 0x4 DUP2 LT PUSH2 0x4AF JUMPI PUSH2 0x4AE PUSH2 0x7A9 JUMP JUMPDEST JUMPDEST PUSH1 0x20 MUL ADD MLOAD SWAP2 POP JUMPDEST DUP1 DUP1 PUSH2 0x4C2 SWAP1 PUSH2 0x807 JUMP JUMPDEST SWAP2 POP POP PUSH2 0x474 JUMP JUMPDEST POP DUP1 SWAP3 POP POP POP SWAP1 JUMP JUMPDEST PUSH1 0x0 PUSH1 0x3 SLOAD SWAP1 POP SWAP1 JUMP JUMPDEST DUP1 PUSH1 0x0 ISZERO ISZERO PUSH1 0x7 DUP3 PUSH2 0x3E8 DUP2 LT PUSH2 0x4F7 JUMPI PUSH2 0x4F6 PUSH2 0x7A9 JUMP JUMPDEST JUMPDEST PUSH1 0x2 MUL ADD PUSH1 0x0 ADD PUSH1 0x0 SWAP1 SLOAD SWAP1 PUSH2 0x100 EXP SWAP1 DIV PUSH1 0xFF AND ISZERO ISZERO EQ PUSH2 0x518 JUMPI PUSH1 0x0 DUP1 REVERT JUMPDEST PUSH1 0x0 DUP1 DUP2 SLOAD DUP1 SWAP3 SWAP2 SWAP1 PUSH2 0x52A SWAP1 PUSH2 0x807 JUMP JUMPDEST SWAP2 SWAP1 POP SSTORE POP PUSH1 0x6 PUSH1 0x0 DUP2 SLOAD DUP1 SWAP3 SWAP2 SWAP1 PUSH2 0x542 SWAP1 PUSH2 0x807 JUMP JUMPDEST SWAP2 SWAP1 POP SSTORE POP PUSH1 0x1 PUSH1 0x7 DUP4 PUSH2 0x3E8 DUP2 LT PUSH2 0x55E JUMPI PUSH2 0x55D PUSH2 0x7A9 JUMP JUMPDEST JUMPDEST PUSH1 0x2 MUL ADD PUSH1 0x0 ADD PUSH1 0x0 PUSH2 0x100 EXP DUP2 SLOAD DUP2 PUSH1 0xFF MUL NOT AND SWAP1 DUP4 ISZERO ISZERO MUL OR SWAP1 SSTORE POP PUSH1 0x40 MLOAD DUP1 PUSH1 0x40 ADD PUSH1 0x40 MSTORE DUP1 PUSH1 0x3 DUP2 MSTORE PUSH1 0x20 ADD PUSH32 0x424A500000000000000000000000000000000000000000000000000000000000 DUP2 MSTORE POP PUSH1 0x7 DUP4 PUSH2 0x3E8 DUP2 LT PUSH2 0x5C7 JUMPI PUSH2 0x5C6 PUSH2 0x7A9 JUMP JUMPDEST JUMPDEST PUSH1 0x2 MUL ADD PUSH1 0x1 ADD SWAP1 DUP2 PUSH2 0x5DA SWAP2 SWAP1 PUSH2 0xA95 JUMP JUMPDEST POP POP POP JUMP JUMPDEST PUSH1 0x0 DUP1 SLOAD SWAP1 POP SWAP1 JUMP JUMPDEST PUSH1 0x0 PUSH1 0x1 SLOAD SWAP1 POP SWAP1 JUMP JUMPDEST DUP1 PUSH1 0x0 ISZERO ISZERO PUSH1 0x7 DUP3 PUSH2 0x3E8 DUP2 LT PUSH2 0x60C JUMPI PUSH2 0x60B PUSH2 0x7A9 JUMP JUMPDEST JUMPDEST PUSH1 0x2 MUL ADD PUSH1 0x0 ADD PUSH1 0x0 SWAP1 SLOAD SWAP1 PUSH2 0x100 EXP SWAP1 DIV PUSH1 0xFF AND ISZERO ISZERO EQ PUSH2 0x62D JUMPI PUSH1 0x0 DUP1 REVERT JUMPDEST PUSH1 0x3 PUSH1 0x0 DUP2 SLOAD DUP1 SWAP3 SWAP2 SWAP1 PUSH2 0x640 SWAP1 PUSH2 0x807 JUMP JUMPDEST SWAP2 SWAP1 POP SSTORE POP PUSH1 0x6 PUSH1 0x0 DUP2 SLOAD DUP1 SWAP3 SWAP2 SWAP1 PUSH2 0x658 SWAP1 PUSH2 0x807 JUMP JUMPDEST SWAP2 SWAP1 POP SSTORE POP PUSH1 0x1 PUSH1 0x7 DUP4 PUSH2 0x3E8 DUP2 LT PUSH2 0x674 JUMPI PUSH2 0x673 PUSH2 0x7A9 JUMP JUMPDEST JUMPDEST PUSH1 0x2 MUL ADD PUSH1 0x0 ADD PUSH1 0x0 PUSH2 0x100 EXP DUP2 SLOAD DUP2 PUSH1 0xFF MUL NOT AND SWAP1 DUP4 ISZERO ISZERO MUL OR SWAP1 SSTORE POP PUSH1 0x40 MLOAD DUP1 PUSH1 0x40 ADD PUSH1 0x40 MSTORE DUP1 PUSH1 0x11 DUP2 MSTORE PUSH1 0x20 ADD PUSH32 0x4E6F6E65206F66207468652061626F7665000000000000000000000000000000 DUP2 MSTORE POP PUSH1 0x7 DUP4 PUSH2 0x3E8 DUP2 LT PUSH2 0x6DD JUMPI PUSH2 0x6DC PUSH2 0x7A9 JUMP JUMPDEST JUMPDEST PUSH1 0x2 MUL ADD PUSH1 0x1 ADD SWAP1 DUP2 PUSH2 0x6F0 SWAP2 SWAP1 PUSH2 0xA95 JUMP JUMPDEST POP POP POP JUMP JUMPDEST PUSH1 0x40 MLOAD DUP1 PUSH1 0x80 ADD PUSH1 0x40 MSTORE DUP1 PUSH1 0x4 SWAP1 PUSH1 0x20 DUP3 MUL DUP1 CALLDATASIZE DUP4 CALLDATACOPY DUP1 DUP3 ADD SWAP2 POP POP SWAP1 POP POP SWAP1 JUMP JUMPDEST PUSH1 0x0 DUP1 REVERT JUMPDEST PUSH1 0x0 DUP2 SWAP1 POP SWAP2 SWAP1 POP JUMP JUMPDEST PUSH2 0x72F DUP2 PUSH2 0x71C JUMP JUMPDEST DUP2 EQ PUSH2 0x73A JUMPI PUSH1 0x0 DUP1 REVERT JUMPDEST POP JUMP JUMPDEST PUSH1 0x0 DUP2 CALLDATALOAD SWAP1 POP PUSH2 0x74C DUP2 PUSH2 0x726 JUMP JUMPDEST SWAP3 SWAP2 POP POP JUMP JUMPDEST PUSH1 0x0 PUSH1 0x20 DUP3 DUP5 SUB SLT ISZERO PUSH2 0x768 JUMPI PUSH2 0x767 PUSH2 0x717 JUMP JUMPDEST JUMPDEST PUSH1 0x0 PUSH2 0x776 DUP5 DUP3 DUP6 ADD PUSH2 0x73D JUMP JUMPDEST SWAP2 POP POP SWAP3 SWAP2 POP POP JUMP JUMPDEST PUSH2 0x788 DUP2 PUSH2 0x71C JUMP JUMPDEST DUP3 MSTORE POP POP JUMP JUMPDEST PUSH1 0x0 PUSH1 0x20 DUP3 ADD SWAP1 POP PUSH2 0x7A3 PUSH1 0x0 DUP4 ADD DUP5 PUSH2 0x77F JUMP JUMPDEST SWAP3 SWAP2 POP POP JUMP JUMPDEST PUSH32 0x4E487B7100000000000000000000000000000000000000000000000000000000 PUSH1 0x0 MSTORE PUSH1 0x32 PUSH1 0x4 MSTORE PUSH1 0x24 PUSH1 0x0 REVERT JUMPDEST PUSH32 0x4E487B7100000000000000000000000000000000000000000000000000000000 PUSH1 0x0 MSTORE PUSH1 0x11 PUSH1 0x4 MSTORE PUSH1 0x24 PUSH1 0x0 REVERT JUMPDEST PUSH1 0x0 PUSH2 0x812 DUP3 PUSH2 0x71C JUMP JUMPDEST SWAP2 POP PUSH32 0xFFFFFFFFFFFFFFFFFFFFFFFFFFFFFFFFFFFFFFFFFFFFFFFFFFFFFFFFFFFFFFFF DUP3 SUB PUSH2 0x844 JUMPI PUSH2 0x843 PUSH2 0x7D8 JUMP JUMPDEST JUMPDEST PUSH1 0x1 DUP3 ADD SWAP1 POP SWAP2 SWAP1 POP JUMP JUMPDEST PUSH1 0x0 DUP2 MLOAD SWAP1 POP SWAP2 SWAP1 POP JUMP JUMPDEST PUSH32 0x4E487B7100000000000000000000000000000000000000000000000000000000 PUSH1 0x0 MSTORE PUSH1 0x41 PUSH1 0x4 MSTORE PUSH1 0x24 PUSH1 0x0 REVERT JUMPDEST PUSH32 0x4E487B7100000000000000000000000000000000000000000000000000000000 PUSH1 0x0 MSTORE PUSH1 0x22 PUSH1 0x4 MSTORE PUSH1 0x24 PUSH1 0x0 REVERT JUMPDEST PUSH1 0x0 PUSH1 0x2 DUP3 DIV SWAP1 POP PUSH1 0x1 DUP3 AND DUP1 PUSH2 0x8D0 JUMPI PUSH1 0x7F DUP3 AND SWAP2 POP JUMPDEST PUSH1 0x20 DUP3 LT DUP2 SUB PUSH2 0x8E3 JUMPI PUSH2 0x8E2 PUSH2 0x889 JUMP JUMPDEST JUMPDEST POP SWAP2 SWAP1 POP JUMP JUMPDEST PUSH1 0x0 DUP2 SWAP1 POP DUP2 PUSH1 0x0 MSTORE PUSH1 0x20 PUSH1 0x0 KECCAK256 SWAP1 POP SWAP2 SWAP1 POP JUMP JUMPDEST PUSH1 0x0 PUSH1 0x20 PUSH1 0x1F DUP4 ADD DIV SWAP1 POP SWAP2 SWAP1 POP JUMP JUMPDEST PUSH1 0x0 DUP3 DUP3 SHL SWAP1 POP SWAP3 SWAP2 POP POP JUMP JUMPDEST PUSH1 0x0 PUSH1 0x8 DUP4 MUL PUSH2 0x94B PUSH32 0xFFFFFFFFFFFFFFFFFFFFFFFFFFFFFFFFFFFFFFFFFFFFFFFFFFFFFFFFFFFFFFFF DUP3 PUSH2 0x90E JUMP JUMPDEST PUSH2 0x955 DUP7 DUP4 PUSH2 0x90E JUMP JUMPDEST SWAP6 POP DUP1 NOT DUP5 AND SWAP4 POP DUP1 DUP7 AND DUP5 OR SWAP3 POP POP POP SWAP4 SWAP3 POP POP POP JUMP JUMPDEST PUSH1 0x0 DUP2 SWAP1 POP SWAP2 SWAP1 POP JUMP JUMPDEST PUSH1 0x0 PUSH2 0x992 PUSH2 0x98D PUSH2 0x988 DUP5 PUSH2 0x71C JUMP JUMPDEST PUSH2 0x96D JUMP JUMPDEST PUSH2 0x71C JUMP JUMPDEST SWAP1 POP SWAP2 SWAP1 POP JUMP JUMPDEST PUSH1 0x0 DUP2 SWAP1 POP SWAP2 SWAP1 POP JUMP JUMPDEST PUSH2 0x9AC DUP4 PUSH2 0x977 JUMP JUMPDEST PUSH2 0x9C0 PUSH2 0x9B8 DUP3 PUSH2 0x999 JUMP JUMPDEST DUP5 DUP5 SLOAD PUSH2 0x91B JUMP JUMPDEST DUP3 SSTORE POP POP POP POP JUMP JUMPDEST PUSH1 0x0 SWAP1 JUMP JUMPDEST PUSH2 0x9D5 PUSH2 0x9C8 JUMP JUMPDEST PUSH2 0x9E0 DUP2 DUP5 DUP5 PUSH2 0x9A3 JUMP JUMPDEST POP POP POP JUMP JUMPDEST JUMPDEST DUP2 DUP2 LT ISZERO PUSH2 0xA04 JUMPI PUSH2 0x9F9 PUSH1 0x0 DUP3 PUSH2 0x9CD JUMP JUMPDEST PUSH1 0x1 DUP2 ADD SWAP1 POP PUSH2 0x9E6 JUMP JUMPDEST POP POP JUMP JUMPDEST PUSH1 0x1F DUP3 GT ISZERO PUSH2 0xA49 JUMPI PUSH2 0xA1A DUP2 PUSH2 0x8E9 JUMP JUMPDEST PUSH2 0xA23 DUP5 PUSH2 0x8FE JUMP JUMPDEST DUP2 ADD PUSH1 0x20 DUP6 LT ISZERO PUSH2 0xA32 JUMPI DUP2 SWAP1 POP JUMPDEST PUSH2 0xA46 PUSH2 0xA3E DUP6 PUSH2 0x8FE JUMP JUMPDEST DUP4 ADD DUP3 PUSH2 0x9E5 JUMP JUMPDEST POP POP JUMPDEST POP POP POP JUMP JUMPDEST PUSH1 0x0 DUP3 DUP3 SHR SWAP1 POP SWAP3 SWAP2 POP POP JUMP JUMPDEST PUSH1 0x0 PUSH2 0xA6C PUSH1 0x0 NOT DUP5 PUSH1 0x8 MUL PUSH2 0xA4E JUMP JUMPDEST NOT DUP1 DUP4 AND SWAP2 POP POP SWAP3 SWAP2 POP POP JUMP JUMPDEST PUSH1 0x0 PUSH2 0xA85 DUP4 DUP4 PUSH2 0xA5B JUMP JUMPDEST SWAP2 POP DUP3 PUSH1 0x2 MUL DUP3 OR SWAP1 POP SWAP3 SWAP2 POP POP JUMP JUMPDEST PUSH2 0xA9E DUP3 PUSH2 0x84F JUMP JUMPDEST PUSH8 0xFFFFFFFFFFFFFFFF DUP2 GT ISZERO PUSH2 0xAB7 JUMPI PUSH2 0xAB6 PUSH2 0x85A JUMP JUMPDEST JUMPDEST PUSH2 0xAC1 DUP3 SLOAD PUSH2 0x8B8 JUMP JUMPDEST PUSH2 0xACC DUP3 DUP3 DUP6 PUSH2 0xA08 JUMP JUMPDEST PUSH1 0x0 PUSH1 0x20 SWAP1 POP PUSH1 0x1F DUP4 GT PUSH1 0x1 DUP2 EQ PUSH2 0xAFF JUMPI PUSH1 0x0 DUP5 ISZERO PUSH2 0xAED JUMPI DUP3 DUP8 ADD MLOAD SWAP1 POP JUMPDEST PUSH2 0xAF7 DUP6 DUP3 PUSH2 0xA79 JUMP JUMPDEST DUP7 SSTORE POP PUSH2 0xB5F JUMP JUMPDEST PUSH1 0x1F NOT DUP5 AND PUSH2 0xB0D DUP7 PUSH2 0x8E9 JUMP JUMPDEST PUSH1 0x0 JUMPDEST DUP3 DUP2 LT ISZERO PUSH2 0xB35 JUMPI DUP5 DUP10 ADD MLOAD DUP3 SSTORE PUSH1 0x1 DUP3 ADD SWAP2 POP PUSH1 0x20 DUP6 ADD SWAP5 POP PUSH1 0x20 DUP2 ADD SWAP1 POP PUSH2 0xB10 JUMP JUMPDEST DUP7 DUP4 LT ISZERO PUSH2 0xB52 JUMPI DUP5 DUP10 ADD MLOAD PUSH2 0xB4E PUSH1 0x1F DUP10 AND DUP3 PUSH2 0xA5B JUMP JUMPDEST DUP4 SSTORE POP JUMPDEST PUSH1 0x1 PUSH1 0x2 DUP9 MUL ADD DUP9 SSTORE POP POP POP JUMPDEST POP POP POP POP POP POP JUMP INVALID LOG2 PUSH5 0x6970667358 0x22 SLT KECCAK256 DUP2 0xD3 0xE4 LT 0xE0 0xBF PUSH3 0x31D120 0x4B 0x49 PUSH20 0x4236C725785D3E78A401139869D1993701306F64 PUSH20 0x6F6C634300081200330000000000000000000000 "},"methodIdentifiers":{"AAP(uint256)":"4415800e","BJP(uint256)":"c0ad73e6","Congress(uint256)":"4944d88b","Declaration()":"a076e223","NOTA(uint256)":"f77985bb","VotesOfAAP()":"5c4314b9","VotesOfBJP()":"d7e4f754","VotesOfCongress()":"eb6e8f5e","VotesOfNOTA()":"b8a134b8","Winner()":"b2b98ed2"}}}}}