{
  "_format": "hh-sol-artifact-1",
  "contractName": "New_Voting",
  "sourceName": "contracts/new_voting.sol",
  "abi": [
    {
      "inputs": [],
      "stateMutability": "nonpayable",
      "type": "constructor"
    },
    {
      "inputs": [
        {
          "internalType": "uint256",
          "name": "i",
          "type": "uint256"
        }
      ],
      "name": "AAP",
      "outputs": [],
      "stateMutability": "nonpayable",
      "type": "function"
    },
    {
      "inputs": [
        {
          "internalType": "uint256",
          "name": "i",
          "type": "uint256"
        }
      ],
      "name": "BJP",
      "outputs": [],
      "stateMutability": "nonpayable",
      "type": "function"
    },
    {
      "inputs": [
        {
          "internalType": "uint256",
          "name": "i",
          "type": "uint256"
        }
      ],
      "name": "Congress",
      "outputs": [],
      "stateMutability": "nonpayable",
      "type": "function"
    },
    {
      "inputs": [],
      "name": "Declaration",
      "outputs": [
        {
          "internalType": "uint256",
          "name": "",
          "type": "uint256"
        }
      ],
      "stateMutability": "view",
      "type": "function"
    },
    {
      "inputs": [
        {
          "internalType": "uint256",
          "name": "i",
          "type": "uint256"
        }
      ],
      "name": "NOTA",
      "outputs": [],
      "stateMutability": "nonpayable",
      "type": "function"
    },
    {
      "inputs": [],
      "name": "VotesOfAAP",
      "outputs": [
        {
          "internalType": "uint256",
          "name": "",
          "type": "uint256"
        }
      ],
      "stateMutability": "view",
      "type": "function"
    },
    {
      "inputs": [],
      "name": "VotesOfBJP",
      "outputs": [
        {
          "internalType": "uint256",
          "name": "",
          "type": "uint256"
        }
      ],
      "stateMutability": "view",
      "type": "function"
    },
    {
      "inputs": [],
      "name": "VotesOfCongress",
      "outputs": [
        {
          "internalType": "uint256",
          "name": "",
          "type": "uint256"
        }
      ],
      "stateMutability": "view",
      "type": "function"
    },
    {
      "inputs": [],
      "name": "VotesOfNOTA",
      "outputs": [
        {
          "internalType": "uint256",
          "name": "",
          "type": "uint256"
        }
      ],
      "stateMutability": "view",
      "type": "function"
    },
    {
      "inputs": [],
      "name": "Winner",
      "outputs": [
        {
          "internalType": "uint256",
          "name": "",
          "type": "uint256"
        }
      ],
      "stateMutability": "view",
      "type": "function"
    }
  ],
  "bytecode": "0x6080604052600080556000600155600060025560006003554260045560006006553480156200002d57600080fd5b5060005b6103e88110156200012657336007826103e881106200005557620000546200012d565b5b6002020160000160016101000a81548173ffffffffffffffffffffffffffffffffffffffff021916908373ffffffffffffffffffffffffffffffffffffffff16021790555060006007826103e88110620000b457620000b36200012d565b5b6002020160000160006101000a81548160ff021916908315150217905550604051806020016040528060008152506007826103e88110620000fa57620000f96200012d565b5b6002020160010190816200010f9190620003d6565b5080806200011d90620004ec565b91505062000031565b5062000539565b7f4e487b7100000000000000000000000000000000000000000000000000000000600052603260045260246000fd5b600081519050919050565b7f4e487b7100000000000000000000000000000000000000000000000000000000600052604160045260246000fd5b7f4e487b7100000000000000000000000000000000000000000000000000000000600052602260045260246000fd5b60006002820490506001821680620001de57607f821691505b602082108103620001f457620001f362000196565b5b50919050565b60008190508160005260206000209050919050565b60006020601f8301049050919050565b600082821b905092915050565b6000600883026200025e7fffffffffffffffffffffffffffffffffffffffffffffffffffffffffffffffff826200021f565b6200026a86836200021f565b95508019841693508086168417925050509392505050565b6000819050919050565b6000819050919050565b6000620002b7620002b1620002ab8462000282565b6200028c565b62000282565b9050919050565b6000819050919050565b620002d38362000296565b620002eb620002e282620002be565b8484546200022c565b825550505050565b600090565b62000302620002f3565b6200030f818484620002c8565b505050565b5b8181101562000337576200032b600082620002f8565b60018101905062000315565b5050565b601f82111562000386576200035081620001fa565b6200035b846200020f565b810160208510156200036b578190505b620003836200037a856200020f565b83018262000314565b50505b505050565b600082821c905092915050565b6000620003ab600019846008026200038b565b1980831691505092915050565b6000620003c6838362000398565b9150826002028217905092915050565b620003e1826200015c565b67ffffffffffffffff811115620003fd57620003fc62000167565b5b620004098254620001c5565b620004168282856200033b565b600060209050601f8311600181146200044e576000841562000439578287015190505b620004458582620003b8565b865550620004b5565b601f1984166200045e86620001fa565b60005b82811015620004885784890151825560018201915060208501945060208101905062000461565b86831015620004a85784890151620004a4601f89168262000398565b8355505b6001600288020188555050505b505050505050565b7f4e487b7100000000000000000000000000000000000000000000000000000000600052601160045260246000fd5b6000620004f98262000282565b91507fffffffffffffffffffffffffffffffffffffffffffffffffffffffffffffffff82036200052e576200052d620004bd565b5b600182019050919050565b610b9d80620005496000396000f3fe608060405234801561001057600080fd5b506004361061009e5760003560e01c8063b8a134b811610066578063b8a134b814610135578063c0ad73e614610153578063d7e4f7541461016f578063eb6e8f5e1461018d578063f77985bb146101ab5761009e565b80634415800e146100a35780634944d88b146100bf5780635c4314b9146100db578063a076e223146100f9578063b2b98ed214610117575b600080fd5b6100bd60048036038101906100b89190610752565b6101c7565b005b6100d960048036038101906100d49190610752565b6102ca565b005b6100e36103cd565b6040516100f0919061078e565b60405180910390f35b6101016103d7565b60405161010e919061078e565b60405180910390f35b61011f6103e1565b60405161012c919061078e565b60405180910390f35b61013d6104d3565b60405161014a919061078e565b60405180910390f35b61016d60048036038101906101689190610752565b6104dd565b005b6101776105df565b604051610184919061078e565b60405180910390f35b6101956105e8565b6040516101a2919061078e565b60405180910390f35b6101c560048036038101906101c09190610752565b6105f2565b005b80600015156007826103e881106101e1576101e06107a9565b5b6002020160000160009054906101000a900460ff1615151461020257600080fd5b6002600081548092919061021590610807565b91905055506006600081548092919061022d90610807565b919050555060016007836103e88110610249576102486107a9565b5b6002020160000160006101000a81548160ff0219169083151502179055506040518060400160405280600381526020017f41415000000000000000000000000000000000000000000000000000000000008152506007836103e881106102b2576102b16107a9565b5b6002020160010190816102c59190610a95565b505050565b80600015156007826103e881106102e4576102e36107a9565b5b6002020160000160009054906101000a900460ff1615151461030557600080fd5b6001600081548092919061031890610807565b91905055506006600081548092919061033090610807565b919050555060016007836103e8811061034c5761034b6107a9565b5b6002020160000160006101000a81548160ff0219169083151502179055506040518060400160405280600881526020017f436f6e67726573730000000000000000000000000000000000000000000000008152506007836103e881106103b5576103b46107a9565b5b6002020160010190816103c89190610a95565b505050565b6000600254905090565b6000600654905090565b60006103eb6106f5565b60005481600060048110610402576104016107a9565b5b60200201818152505060015481600160048110610422576104216107a9565b5b60200201818152505060025481600260048110610442576104416107a9565b5b60200201818152505060035481600360048110610462576104616107a9565b5b60200201818152505060008054905060005b60048110156104ca5781838260048110610491576104906107a9565b5b602002015111156104b7578281600481106104af576104ae6107a9565b5b602002015191505b80806104c290610807565b915050610474565b50809250505090565b6000600354905090565b80600015156007826103e881106104f7576104f66107a9565b5b6002020160000160009054906101000a900460ff1615151461051857600080fd5b60008081548092919061052a90610807565b91905055506006600081548092919061054290610807565b919050555060016007836103e8811061055e5761055d6107a9565b5b6002020160000160006101000a81548160ff0219169083151502179055506040518060400160405280600381526020017f424a5000000000000000000000000000000000000000000000000000000000008152506007836103e881106105c7576105c66107a9565b5b6002020160010190816105da9190610a95565b505050565b60008054905090565b6000600154905090565b80600015156007826103e8811061060c5761060b6107a9565b5b6002020160000160009054906101000a900460ff1615151461062d57600080fd5b6003600081548092919061064090610807565b91905055506006600081548092919061065890610807565b919050555060016007836103e88110610674576106736107a9565b5b6002020160000160006101000a81548160ff0219169083151502179055506040518060400160405280601181526020017f4e6f6e65206f66207468652061626f76650000000000000000000000000000008152506007836103e881106106dd576106dc6107a9565b5b6002020160010190816106f09190610a95565b505050565b6040518060800160405280600490602082028036833780820191505090505090565b600080fd5b6000819050919050565b61072f8161071c565b811461073a57600080fd5b50565b60008135905061074c81610726565b92915050565b60006020828403121561076857610767610717565b5b60006107768482850161073d565b91505092915050565b6107888161071c565b82525050565b60006020820190506107a3600083018461077f565b92915050565b7f4e487b7100000000000000000000000000000000000000000000000000000000600052603260045260246000fd5b7f4e487b7100000000000000000000000000000000000000000000000000000000600052601160045260246000fd5b60006108128261071c565b91507fffffffffffffffffffffffffffffffffffffffffffffffffffffffffffffffff8203610844576108436107d8565b5b600182019050919050565b600081519050919050565b7f4e487b7100000000000000000000000000000000000000000000000000000000600052604160045260246000fd5b7f4e487b7100000000000000000000000000000000000000000000000000000000600052602260045260246000fd5b600060028204905060018216806108d057607f821691505b6020821081036108e3576108e2610889565b5b50919050565b60008190508160005260206000209050919050565b60006020601f8301049050919050565b600082821b905092915050565b60006008830261094b7fffffffffffffffffffffffffffffffffffffffffffffffffffffffffffffffff8261090e565b610955868361090e565b95508019841693508086168417925050509392505050565b6000819050919050565b600061099261098d6109888461071c565b61096d565b61071c565b9050919050565b6000819050919050565b6109ac83610977565b6109c06109b882610999565b84845461091b565b825550505050565b600090565b6109d56109c8565b6109e08184846109a3565b505050565b5b81811015610a04576109f96000826109cd565b6001810190506109e6565b5050565b601f821115610a4957610a1a816108e9565b610a23846108fe565b81016020851015610a32578190505b610a46610a3e856108fe565b8301826109e5565b50505b505050565b600082821c905092915050565b6000610a6c60001984600802610a4e565b1980831691505092915050565b6000610a858383610a5b565b9150826002028217905092915050565b610a9e8261084f565b67ffffffffffffffff811115610ab757610ab661085a565b5b610ac182546108b8565b610acc828285610a08565b600060209050601f831160018114610aff5760008415610aed578287015190505b610af78582610a79565b865550610b5f565b601f198416610b0d866108e9565b60005b82811015610b3557848901518255600182019150602085019450602081019050610b10565b86831015610b525784890151610b4e601f891682610a5b565b8355505b6001600288020188555050505b50505050505056fea264697066735822122081d3e410e0bf6231d1204b49734236c725785d3e78a401139869d1993701306f64736f6c63430008120033",
  "linkReferences": {},
  "deployedLinkReferences": {}
}